S0190000555345525F4150504C49434154494F4E312E7372656308
S113000029C000002FC000002DC000002BC000003C
S113001029C0000027C0000025C0000023C0000044
S113002021C000001FC000001DC000001BC0000054
S113003019C0000017C0000015C0000013C0000064
S113004011C000000FC000000DC000000BC0000074
S113005009C0000011241FBECFE5D8E0DEBFCDBF2C
S113006036D037C0CDCF43B321E030E0B90102C070
S1130070660F771F8A95E2F750E09B01242335230E
S113008081E0232B09F480E0089560E070E087E0CC
S113009090E0E9DF882311F0C09801C0C09A80E0A5
S11300A090E00895A898A998AA98AB98AC9AAD9AAC
S11300B0AE9AAF9AEADFFECFB89AB998A09AA19AFD
S11300C0A29AA39AA498A598A698A7980895F4DF4D
S10900D0E9DFF894FFCF04
S9030000FC
