S0190000555345525F4150504C49434154494F4E312E7372656308
S113000029C000002FC000002DC000002BC000003C
S113001029C0000027C0000025C0000023C0000044
S113002021C000001FC000001DC000001BC0000054
S113003019C0000017C0000015C0000013C0000064
S113004011C000000FC000000DC000000BC0000074
S113005009C0000011241FBECFE5D8E0DEBFCDBF2C
S1130060A1D0A2C0CDCF95B341E050E09A01082EB3
S113007002C0220F331F0A94E2F72095292325BBDF
S113008023B330E0A90102C0559547958A95E2F75C
S113009040FD0FC083B390E09C0102C035952795C5
S11300A06A95E2F781E090E020FF05C080E090E0EF
S11300B002C080E090E081700895EF92FF920F9368
S11300C01F93CF93DF9304E010E0E12CF12C16C0D2
S11300D0B801CE01C8DF882341F0000F111F000FC3
S11300E0111FC00FD11F21960DC02196C430D10518
S11300F079F70F5F1F4F0830110511F0E701E8CFC2
S1130100C0E0D0E08C2F9D2FDF91CF911F910F91F4
S1130110FF90EF900895B89AB998A498A598A698D6
S1130120A798A09AA19AA29AA39A089523E023BF1C
S113013033E807C032BF28B7216028BF08B600FEE5
S1130140FDCF0197B8F713BE08950F931F93CF9374
S1130150DF938C01C09A1816190674F4C0E0D0E03D
S1130160C09A84EF91E0E2DFC09884EF91E0DEDF93
S11301702196C017D107A1F7DF91CF911F910F915D
S11301800895AF9AAE9AAD9AAC9AAB9AAA9AA99AE4
S1130190A89A93DF181619061CF48FDFD6DFF9CF5F
S10F01A0C098F7CFB8DFEDDFF894FFCF74
S9030000FC
