:1000000029C000003AC0000038C0000036C000001F
:1000100034C0000032C0000030C000002EC000001C
:100020002CC000002AC0000028C0000026C000002C
:1000300024C0000022C0000020C000001EC000003C
:100040001CC000001AC0000018C0000016C000004C
:1000500014C0000011241FBECFE5D8E0DEBFCDBF25
:1000600010E0A0E6B0E0ECE3F1E002C005900D92F4
:10007000A636B107D9F707D05FC0C2CF31D080E62E
:1000800090E04CD0FFCFFADF23E023BF33E807C076
:1000900032BF28B7216028BF08B600FEFDCF019708
:1000A000B8F713BE0895662311F0C29A01C0C29832
:1000B000C39882BB8FEF81BBC49A00000000000090
:1000C000C4980895C298C39A11BA90B3C49A000014
:1000D0000000000011BA90B3C49899239CF3E3CFB9
:1000E000BA9ABB9ABC9A80E190E0CEDF60E080E3F0
:1000F000DADF85E090E0C8DF60E080E3D4DF81E014
:1001000090E0C2DF60E08CE3DDDF60E08CE0DADF0E
:1001100060E086E0D7DF60E081E0D4CFCF93DF936B
:10012000EC018991882329F061E0CCDF899181116C
:0C013000FBCFDF91CF910895F894FFCF32
:06013C0068656C6C6F00A9
:00000001FF
