S0190000555345525F4150504C49434154494F4E312E7372656308
S113000029C0000042C0000040C000003EC0000003
S11300103CC000003AC0000038C0000036C00000F8
S113002034C0000032C0000030C000002EC0000008
S11300302CC000002AC0000028C0000026C0000018
S113004024C0000022C0000020C000001EC0000028
S11300501CC0000011241FBECFE5D8E0DEBFCDBF19
S113006010E0A0E6B0E0E6E6F1E002C005900D92F3
S1130070AE36B107D9F720E0AEE6B0E001C01D927C
S1130080AE36B207E1F70DD06CC0BACFB89AB998C2
S1130090A498A598A698A798A09AA19AA29AA39A78
S11300A00895F4DF32D080E690E04DD080E090E017
S11300B0089523E023BF33E807C032BF28B7216087
S11300C028BF08B600FEFDCF0197B8F713BE089508
S11300D0662311F0C09A01C0C098C19882BB8FEF0B
S11300E081BBC29A000000000000C2980895C09825
S11300F0C19A11BA90B3C29A00000000000011BA6C
S113010090B3C29899239CF3E3CFB89AB99ABA9A58
S113011080E190E0CEDF60E080E3DADF85E090E02C
S1130120C8DF60E080E3D4DF81E090E0C2DF60E01C
S11301308CE3DDDF60E08CE0DADF60E086E0D7DFCF
S113014060E081E0D4CFCF93DF93EC0189918823E1
S113015029F061E0CCDF89918111FBCFDF91CF9150
S10901600895F894FFCF9E
S111016668656C6C6F20776F726C642100000A
S9030000FC
